:100000000C942A000C9447000C9447000C94470071
:100010000C9447000C94A1020C9447000C944700E8
:100020000C9447000C9447000C9447000C94470034
:100030000C9447000C9447000C9447000C94470024
:100040000C9447000C9447000C9447000C94470014
:100050000C94470011241FBECFE5D8E0DEBFCDBF12
:1000600010E0A0E6B0E0E6E9FEE002C005900D92E7
:10007000A63CB107D9F710E0A6ECB0E001C01D9294
:10008000AC3CB107E1F70E9449000C9449070C947D
:1000900000000E94B2020E946B0381E00E94E7030D
:1000A00082E061E00E94B20682E064E041E00E94EA
:1000B000320482E065E041E00E94320480E690E094
:1000C0000E94D80382E061E00E94B7038BE690E0D3
:1000D0000E94D8030E942F070F2EFFE9EF2EF0E0B9
:1000E000FF2EF02D0F2EF0E6CF2EF0E0DF2EF02DBC
:1000F0000BE610E00F2EF5E7AF2EF0E0BF2EF02D4F
:100100000F2EFEE78F2EF0E09F2EF02D0F2EF9E838
:100110006F2EF0E07F2EF02D0F2EF4E94F2EF0E041
:100120005F2EF02DCAE00E94BF028093CB008F3F6C
:1001300009F4DBC0813309F0BEC00E946103C50130
:100140000E94D80381E067E00E94B7038FEF94E339
:10015000ACE081509040A040E1F700C000000E9458
:10016000BF028093C9008F3FD1F30E941D038FEF20
:1001700092E5A7E081509040A040E1F700C0000068
:100180000E94BF028093CA008F3FD1F30E941D03DB
:100190008FEF92E5A7E081509040A040E1F700C0CA
:1001A00000009091CA0090518091C900880F282FBB
:1001B000220F220F820F890F8093C6000E946103D5
:1001C000C4010E94D80381E069E00E94B7030E9445
:1001D000BF028093C9008F3FD1F30E941D038FEFB0
:1001E00092E5A7E081509040A040E1F700C00000F8
:1001F0000E94BF028093CA008F3FD1F30E941D036B
:100200008FEF92E5A7E081509040A040E1F700C059
:1002100000009091CA0090518091C900880F282F4A
:10022000220F220F820F890F8093C7000E94610363
:10023000C3010E94D80381E069E00E94B7030E94D5
:10024000BF028093C9008F3FD1F30E941D038FEF3F
:1002500092E5A7E081509040A040E1F700C0000087
:100260000E94BF028093CA008F3FD1F30E941D03FA
:100270008FEF92E5A7E081509040A040E1F700C0E9
:1002800000009091CA0090518091C900880F282FDA
:10029000220F220F820F890F8093C8000E946103F2
:1002A000C2010E94D80382E061E00E94B703C80146
:1002B0000E94D8031AC00E946103C7010E94D8039C
:1002C0008FEF95EAAEE081509040A040E1F700C08A
:1002D00000000E946103C6010E94D80382E061E031
:1002E0000E94B703C8010E94D80382E061E041E0A8
:1002F0000E94B70482E062E041E00E94B70482E01D
:1003000063E041E00E94B70482E064E041E00E94C3
:10031000B70482E065E041E00E94B70482E060E05B
:1003200040E00E94B7048091C8006C2F0E943D07F6
:1003300081E0692F0E94EB03AFE0B7E21197F1F77C
:1003400000C0000082E060E041E00E94B70482E06B
:1003500062E041E00E94B70482E063E041E00E9475
:10036000B70482E064E041E00E94B70482E065E007
:1003700041E00E94B70482E061E040E00E94B704DF
:100380008091C8006C2F0E943D07682F81E00E9479
:10039000EB038FE097E20197F1F700C0000082E0E5
:1003A00060E041E00E94B70482E061E041E00E9429
:1003B000B70482E063E041E00E94B70482E064E0B9
:1003C00041E00E94B70482E065E041E00E94B7048A
:1003D00082E062E040E00E94B7048091C7006C2F89
:1003E0000E943D0781E0692F0E94EB03AFE0B7E276
:1003F0001197F1F700C0000082E060E041E00E9448
:10040000B70482E061E041E00E94B70482E062E06C
:1004100041E00E94B70482E064E041E00E94B7043A
:1004200082E065E041E00E94B70482E063E040E0E2
:100430000E94B7048091C7006C2F0E943D07682F6F
:1004400081E00E94EB038FE097E20197F1F700C093
:10045000000082E060E041E00E94B70482E061E0D9
:1004600041E00E94B70482E062E041E00E94B704EC
:1004700082E063E041E00E94B70482E065E041E091
:100480000E94B70482E064E040E00E94B7048091DB
:10049000C6006C2F0E943D0781E0692F0E94EB038C
:1004A000AFE0B7E21197F1F700C0000082E060E032
:1004B00041E00E94B70482E061E041E00E94B7049D
:1004C00082E062E041E00E94B70482E063E041E044
:1004D0000E94B70482E064E041E00E94B70482E039
:1004E00065E040E00E94B7048091C6006C2F0E9436
:1004F0003D07682F81E00E94EB038FE097E20197B0
:10050000F1F700C000008091C8008C3339F41092DC
:10051000C8008091C7008F5F8093C7008091C7009B
:100520008C3339F41092C7008091C6008F5F80939E
:10053000C6008091C600883109F0F5CD1092C60042
:10054000F2CD1F920F920FB60F9211248F938091CC
:10055000C8008F5F8093C8008F910F900FBE0F90DF
:100560001F90189583E061E00E94B20683E060E08E
:100570000E94CC0683E061E00E944B0608950F9331
:100580001F93CF93DF93CDB7DEB760970FB6F89484
:10059000DEBF0FBECDBFDE011196ECEAF0E080E1D8
:1005A00001900D928150E1F700E083E06FE00E943E
:1005B000650683E0602F40E00E94B70410E0612FE1
:1005C0006C5F83E00E943C05882361F4E02FF0E03B
:1005D000EE0FFF1FEE0FFF1FE10FF11DEC0FFD1FD0
:1005E000818104C01F5F143051F70BC060960FB6B5
:1005F000F894DEBF0FBECDBFDF91CF911F910F9159
:1006000008950F5F043089F68FEFF0CF80E065E04A
:1006100041E00E94B70483EF91E00197F1F700C039
:10062000000080E065E040E00E94B70483EF91E0C5
:100630000197F1F700C000000895CF93C82F682FED
:1006400062956F7080E00E94650680E067E041E09F
:100650000E94B7040E94060380E06C2F0E9465068A
:1006600080E067E041E00E94B7040E94060389EF42
:1006700090E00197F1F700C00000CF910895CF936B
:10068000C82F682F62956F7080E00E94650680E039
:1006900067E040E00E94B7040E94060380E06C2FF0
:1006A0000E94650680E067E040E00E94B7040E9477
:1006B000060389EF90E00197F1F700C00000CF91A9
:1006C000089581E00E943F0383EC99E00197F1F7E0
:1006D00000C0000008958FE493EC0197F1F700C08B
:1006E000000080E061E00E94B20680E065E041E049
:1006F0000E94320480E067E041E00E94320480E022
:1007000066E041E00E94320480E066E040E00E9442
:10071000B70482E00E943F0383EC99E00197F1F770
:1007200000C0000088E20E943F0389EF90E001973B
:10073000F1F700C000008EE00E943F0389EF90E0D7
:100740000197F1F700C0000081E00E943F0383ECB5
:1007500099E00197F1F700C0000086E00E943F0396
:1007600089EF90E00197F1F700C000000895282F6D
:100770002150223070F4613170F4662371F08130C1
:1007800019F4962F91580AC0823041F4962F915453
:1007900005C090E803C090E801C090E8892F0E944E
:1007A0003F0389EF90E00197F1F700C00000089542
:1007B000CF93DF93EC018881882331F021960E944A
:1007C0001D0389918823D9F7DF91CF9108956FEFA9
:1007D0000E940D040895CF93DF93CDB7DEB72A971B
:1007E0000FB6F894DEBF0FBECDBFDE011196ECEB65
:1007F000F0E09AE001900D929150E1F7FE01E60FD2
:10080000F11D61810E940E042A960FB6F894DEBF96
:100810000FBECDBFDF91CF9108950895813049F08B
:10082000813028F0823039F0833041F406C06BBB50
:10083000089568BB089565BB089562BB0895813033
:1008400049F0813028F0823039F0833049F406C015
:100850008BB3089588B3089585B3089582B308953E
:1008600080E00895442321F0413009F07FC042C068
:100870008130B1F0813030F0823001F1833009F005
:1008800075C02AC02AB381E090E0AC0102C0440FD9
:10089000551F6A95E2F7BA01609562236ABB089515
:1008A00027B381E090E0AC0102C0440F551F6A9568
:1008B000E2F7BA016095622367BB089524B381E033
:1008C00090E0AC0102C0440F551F6A95E2F7BA01EF
:1008D0006095622364BB089521B381E090E0AC0190
:1008E00002C0440F551F6A95E2F7BA016095622372
:1008F00061BB08958130A1F0813028F08230E9F0A9
:100900008330A1F527C02AB381E090E0AC0102C09A
:10091000440F551F6A95E2F7BA01622B6ABB08952E
:1009200027B381E090E0AC0102C0440F551F6A95E7
:10093000E2F7BA01622B67BB089524B381E090E02F
:10094000AC0102C0440F551F6A95E2F7BA01622B51
:1009500064BB089521B381E090E0AC0102C0440F74
:10096000551F6A95E2F7BA01622B61BB08954423D3
:1009700009F441C0413009F07EC08130A9F08130D6
:1009800030F08230F1F0833009F075C027C02BB30E
:1009900081E090E0AC0102C0440F551F6A95E2F778
:1009A000BA01622B6BBB089528B381E090E0AC01E3
:1009B00002C0440F551F6A95E2F7BA01622B68BB6B
:1009C000089525B381E090E0AC0102C0440F551FAB
:1009D0006A95E2F7BA01622B65BB089522B381E004
:1009E00090E0AC0102C0440F551F6A95E2F7BA01CE
:1009F000622B62BB08958130A9F0813028F08230EB
:100A0000F9F08330C1F52AC02BB381E090E0AC014E
:100A100002C0440F551F6A95E2F7BA016095622340
:100A20006BBB089528B381E090E0AC0102C0440F95
:100A3000551F6A95E2F7BA016095622368BB089575
:100A400025B381E090E0AC0102C0440F551F6A95C8
:100A5000E2F7BA016095622365BB089522B381E095
:100A600090E0AC0102C0440F551F6A95E2F7BA014D
:100A70006095622362BB0895813089F0813028F04F
:100A80008230B9F0833049F51EC029B330E0C90186
:100A900002C0959587956A95E2F78170089526B30F
:100AA00030E0C90102C0959587956A95E2F781709B
:100AB000089523B330E0C90102C0959587956A95E2
:100AC000E2F78170089520B330E0C90102C0959526
:100AD00087956A95E2F78170089580E008958130E6
:100AE000A1F0813028F08230E9F08330A1F527C0F1
:100AF0002BB381E090E0AC0102C0440F551F6A9512
:100B0000E2F7BA0162276BBB089528B381E090E059
:100B1000AC0102C0440F551F6A95E2F7BA01622783
:100B200068BB089525B381E090E0AC0102C0440F9A
:100B3000551F6A95E2F7BA01622765BB089522B393
:100B400081E090E0AC0102C0440F551F6A95E2F7C6
:100B5000BA01622762BB0895442309F441C04130C1
:100B600009F07EC08130A9F0813030F08230F1F0A0
:100B7000833009F075C027C02BB381E090E0AC0151
:100B800002C0440F551F6A95E2F7BA01622B6BBB96
:100B9000089528B381E090E0AC0102C0440F551FD6
:100BA0006A95E2F7BA01622B68BB089525B381E02C
:100BB00090E0AC0102C0440F551F6A95E2F7BA01FC
:100BC000622B65BB089522B381E090E0AC0102C0C6
:100BD000440F551F6A95E2F7BA01622B62BB089574
:100BE0008130A9F0813028F08230F9F08330C1F5EE
:100BF0002AC02BB381E090E0AC0102C0440F551F26
:100C00006A95E2F7BA01609562236BBB089528B339
:100C100081E090E0AC0102C0440F551F6A95E2F7F5
:100C2000BA016095622368BB089525B381E090E026
:100C3000AC0102C0440F551F6A95E2F7BA016095F6
:100C4000622365BB089522B381E090E0AC0102C04D
:100C5000440F551F6A95E2F7BA016095622362BBA3
:100C60000895CF93DF93D82FC62F60E04C2F0E94BA
:100C7000AC058D2F61E04C2F0E94AC058D2F62E0FA
:100C80004C2F0E94AC058D2F63E04C2F0E94AC05C9
:100C9000DF91CF910895CF93DF93D82FC62F64E0D3
:100CA0004C2F0E94AC058D2F65E04C2F0E94AC05A7
:100CB0008D2F66E04C2F0E94AC058D2F67E04C2FE6
:100CC0000E94AC05DF91CF910895CF93DF93C82F99
:100CD000D62F462F417060E00E94B7044D2F4695F5
:100CE00041708C2F61E00E94B7044D2F46954695C8
:100CF00041708C2F62E00E94B704D695D695D695A8
:100D00004D2F41708C2F63E00E94B704DF91CF918B
:100D10000895CF93DF93C82FD62FD295D07F462F3B
:100D2000417064E00E94B7044D2F4295469547708C
:100D300041708C2F65E00E94B7044D2F4295469577
:100D40004695437041708C2F66E00E94B7044D2F8A
:100D5000441F4427441F8C2F67E00E94B704DF9193
:100D6000CF910895CF93DF93D82FC62F60E04C2FFB
:100D70000E9432048D2F61E04C2F0E9432048D2F8F
:100D800062E04C2F0E9432048D2F63E04C2F0E94B2
:100D90003204DF91CF910895CF93DF93D82FC62FE0
:100DA00064E04C2F0E9432048D2F65E04C2F0E948E
:100DB00032048D2F66E04C2F0E9432048D2F67E0A5
:100DC0004C2F0E943204DF91CF91089583B7886041
:100DD00083BF8FE48CBF83B7816083BF83B7846098
:100DE00083BF789489B7826089BF0895BB9A83B71F
:100DF000886083BF80E48CBF83B7816083BF83B783
:100E0000846083BF83B7806183BF0895BB9A83B733
:100E1000806483BF83B7886083BF80E48CBF83B75F
:100E2000816083BF83B7846083BF83B7806183BFE2
:100E300083B7806283BF0895BB9A83B7806483BF02
:100E400080E48CBF83B7816083BF83B7846083BF36
:100E500083B7806183BF83B7806283BF089582B503
:100E6000886082BD85B5816085BD85B5846085BD9E
:100E7000789489B7806489BF0895991B79E004C08C
:100E8000991F961708F0961B881F7A95C9F78095C9
:060E90000895F894FFCF65
:100E96005072657373203120746F0073657420631C
:100EA6006C6F636B00686F7572733D2D2D006D69F5
:100EB6006E757465733D2D2D007365636F6E647377
:100EC6003D2D2D007072657373203120746F00778D
:100ED600726F6E672063686F696365003738392FF4
:100EE6003435362A3132332D41303D2B3F065B4FA8
:060EF600666D7D477F6F71
:00000001FF
